S123E0000000000000000000000000000000000000000000000000000000000000000000FC
S123E0200000000000000000000000000000000000000000000000000000000000000000DC
S123E0400000000000000000000000000000000000000000000000000000000000000000BC
S123E06000000000000000000000000000000000000000000000000000000000000000009C
S123E08000000000000000000000000000000000000000000000000000000000000000007C
S123E0A000000000000000000000000000000000000000000000000000000000000000005C
S123E0C000000000000000000000000000000000000000000000000000000000000000003C
S122E0E0000000000000000000000000000000000000000000000000000000000000001D
S123E100FFE2DC8EFFBEBDE216CCE2FBFDE3FBBDE13518CEE125F6E2EE58183A18EE00186D
S123E120AD007EE109E231E237E26CE284E28AE290E2A6E2AC3637183C18CEE2EB1F2E2011
S123E140FCA62F18A7001808188CE2F326EFFCE2EF271A18FEE3FBFDE3FD1F2E20FCA62F60
S123E16018A7001808FCE3FD83000126EA8662B7E2F618CEE2EBBDE1E51AB3E2F12705864D
S123E18063B7E2F618CEE2F3BDE194916327AA18383332393637183CBDE1E518ED06183C46
S123E1A03233C30008FDE40318FFE40118A6001F2E80FCA72F180818BCE40326EF18FEE404
S123E1C00118EC04271A18FEE3FBFDE3FD18A6001F2E80FCA72F1808FCE3FD83000126EA33
S123E1E018383332393CCDEE063CCC000018ED06180918FFE401FCE401C3000718E305183D
S123E2008F4F5F18E300180918BCE40126F5180838CDEF063839366F2D8630A72B6F2C1C31
S123E2202D0CA62EA62F32393CCEFFFF0926FD383986FFBDE2C4398601BDE2C4FCE2FDF70B
S123E240E2FDB7E2FEFCE2FFF7E2FFB7E300FCE2FF2605CC00202003B3E2FDFDE2EFFCE2A0
S123E260FDFDE3FB18CEE2EBBDE194398602BDE2C4FCE2FDF7E2FDB7E2FEFCE2FDFDE3FBBB
S123E280BDE135398603BDE2C4398604BDE2C4398605BDE2C4FCE2FDF7E2FDB7E2FE18FED7
S123E2A0E2FD186E00398605BDE2C43986FEBDE2C4391C26801C008020FE1C004020FEBDC2
S11FE2C0E2C820FEBDE2C8391C2680A7001D28601C093C4848488438A708393BB0
S113E2EB4D435000000000004D435000000000005F
S123FFC0E2DBE2DBE2DBE2DBE2DBE2DBE2DBE2DBE2DBE2DBE2DBE2DBE2DBE2DBE2DBE2DB4D
S123FFE0E2DBE2DBE2DBE2DBE2DBE2DBE2DBE2DBE2DBE2DBE2DBE2DBE2DBE2DBE2DBE2DB2D
S9030000FC
