S123E0000000000000000000000000000000000000000000000000000000000000000000FC
S123E0200000000000000000000000000000000000000000000000000000000000000000DC
S123E0400000000000000000000000000000000000000000000000000000000000000000BC
S123E06000000000000000000000000000000000000000000000000000000000000000009C
S123E08000000000000000000000000000000000000000000000000000000000000000007C
S123E0A000000000000000000000000000000000000000000000000000000000000000005C
S123E0C000000000000000000000000000000000000000000000000000000000000000003C
S122E0E0000000000000000000000000000000000000000000000000000000000000001D
S123E100FFE2EE8EFFBEBDE218CCE30DFDE40DBDE13718CEE125F6E30058183A18EE00181E
S123E120AD007EE109E233E239E26EE286E28CE292E2A8E2B5E2BB3637183C18CEE2FD1F99
S123E1402E20FCA62F18A7001808188CE30526EFFCE301271A18FEE40DFDE40F1F2E20FC9B
S123E160A62F18A7001808FCE40F83000126EA8662B7E30818CEE2FDBDE1E71AB3E30327B6
S123E180058663B7E30818CEE305BDE196916327AA18383332393637183CBDE1E718ED06E5
S123E1A0183C3233C30008FDE41518FFE41318A6001F2E80FCA72F180818BCE41526EF185C
S123E1C0FEE41318EC04271A18FEE40DFDE40F18A6001F2E80FCA72F1808FCE40F83000116
S123E1E026EA18383332393CCDEE063CCC000018ED06180918FFE413FCE413C3000718E326
S123E20005188F4F5F18E300180918BCE41326F5180838CDEF063839366F2D8630A72B6F4A
S123E2202C1C2D0CA62EA62F32393CCEFFFF0926FD383986FFBDE2D6398601BDE2D6FCE392
S123E2400FF7E30FB7E310FCE311F7E311B7E312FCE3112605CC00202003B3E30FFDE301E1
S123E260FCE30FFDE40D18CEE2FDBDE196398602BDE2D6FCE30FF7E30FB7E310FCE30FFD23
S123E280E40DBDE137398603BDE2D6398604BDE2D6398605BDE2D6FCE30FF7E30FB7E3108B
S123E2A018FEE30F186E00398606BDE2D6B6E30E91032700398607BDE2D63986FEBDE2D6C3
S123E2C0397EE1001C26801C008020FE1C004020FEBDE2DA20FEBDE2DA391C2680A7001DDD
S111E2E028601C093C4848488438A708393B8C
S113E2FD4D435000000000004D435000000000004D
S123FFC0E2EDE2EDE2EDE2EDE2EDE2EDE2EDE2EDE2EDE2EDE2EDE2EDE2EDE2EDE2EDE2ED2D
S123FFE0E2EDE2EDE2EDE2EDE2EDE2EDE2EDE2EDE2EDE2EDE2EDE2C1E2EDE2EDE2EDE2ED39
S9030000FC
